{
  "contractName": "mintContract_2",
  "abi": [
    {
      "inputs": [],
      "stateMutability": "nonpayable",
      "type": "constructor"
    },
    {
      "anonymous": false,
      "inputs": [
        {
          "indexed": true,
          "internalType": "address",
          "name": "owner",
          "type": "address"
        },
        {
          "indexed": true,
          "internalType": "address",
          "name": "approved",
          "type": "address"
        },
        {
          "indexed": true,
          "internalType": "uint256",
          "name": "tokenId",
          "type": "uint256"
        }
      ],
      "name": "Approval",
      "type": "event"
    },
    {
      "anonymous": false,
      "inputs": [
        {
          "indexed": true,
          "internalType": "address",
          "name": "owner",
          "type": "address"
        },
        {
          "indexed": true,
          "internalType": "address",
          "name": "operator",
          "type": "address"
        },
        {
          "indexed": false,
          "internalType": "bool",
          "name": "approved",
          "type": "bool"
        }
      ],
      "name": "ApprovalForAll",
      "type": "event"
    },
    {
      "anonymous": false,
      "inputs": [
        {
          "indexed": true,
          "internalType": "address",
          "name": "previousOwner",
          "type": "address"
        },
        {
          "indexed": true,
          "internalType": "address",
          "name": "newOwner",
          "type": "address"
        }
      ],
      "name": "OwnershipTransferred",
      "type": "event"
    },
    {
      "anonymous": false,
      "inputs": [
        {
          "indexed": true,
          "internalType": "address",
          "name": "from",
          "type": "address"
        },
        {
          "indexed": true,
          "internalType": "address",
          "name": "to",
          "type": "address"
        },
        {
          "indexed": true,
          "internalType": "uint256",
          "name": "tokenId",
          "type": "uint256"
        }
      ],
      "name": "Transfer",
      "type": "event"
    },
    {
      "inputs": [
        {
          "internalType": "address",
          "name": "to",
          "type": "address"
        },
        {
          "internalType": "uint256",
          "name": "tokenId",
          "type": "uint256"
        }
      ],
      "name": "approve",
      "outputs": [],
      "stateMutability": "nonpayable",
      "type": "function"
    },
    {
      "inputs": [
        {
          "internalType": "address",
          "name": "owner",
          "type": "address"
        }
      ],
      "name": "balanceOf",
      "outputs": [
        {
          "internalType": "uint256",
          "name": "",
          "type": "uint256"
        }
      ],
      "stateMutability": "view",
      "type": "function"
    },
    {
      "inputs": [
        {
          "internalType": "uint256",
          "name": "tokenId",
          "type": "uint256"
        }
      ],
      "name": "getApproved",
      "outputs": [
        {
          "internalType": "address",
          "name": "",
          "type": "address"
        }
      ],
      "stateMutability": "view",
      "type": "function"
    },
    {
      "inputs": [
        {
          "internalType": "address",
          "name": "owner",
          "type": "address"
        },
        {
          "internalType": "address",
          "name": "operator",
          "type": "address"
        }
      ],
      "name": "isApprovedForAll",
      "outputs": [
        {
          "internalType": "bool",
          "name": "",
          "type": "bool"
        }
      ],
      "stateMutability": "view",
      "type": "function"
    },
    {
      "inputs": [],
      "name": "name",
      "outputs": [
        {
          "internalType": "string",
          "name": "",
          "type": "string"
        }
      ],
      "stateMutability": "view",
      "type": "function"
    },
    {
      "inputs": [],
      "name": "nft_num",
      "outputs": [
        {
          "internalType": "uint256",
          "name": "",
          "type": "uint256"
        }
      ],
      "stateMutability": "view",
      "type": "function"
    },
    {
      "inputs": [],
      "name": "num",
      "outputs": [
        {
          "internalType": "uint256",
          "name": "",
          "type": "uint256"
        }
      ],
      "stateMutability": "view",
      "type": "function"
    },
    {
      "inputs": [],
      "name": "owner",
      "outputs": [
        {
          "internalType": "address",
          "name": "",
          "type": "address"
        }
      ],
      "stateMutability": "view",
      "type": "function"
    },
    {
      "inputs": [
        {
          "internalType": "uint256",
          "name": "tokenId",
          "type": "uint256"
        }
      ],
      "name": "ownerOf",
      "outputs": [
        {
          "internalType": "address",
          "name": "",
          "type": "address"
        }
      ],
      "stateMutability": "view",
      "type": "function"
    },
    {
      "inputs": [],
      "name": "renounceOwnership",
      "outputs": [],
      "stateMutability": "nonpayable",
      "type": "function"
    },
    {
      "inputs": [
        {
          "internalType": "address",
          "name": "from",
          "type": "address"
        },
        {
          "internalType": "address",
          "name": "to",
          "type": "address"
        },
        {
          "internalType": "uint256",
          "name": "tokenId",
          "type": "uint256"
        }
      ],
      "name": "safeTransferFrom",
      "outputs": [],
      "stateMutability": "nonpayable",
      "type": "function"
    },
    {
      "inputs": [
        {
          "internalType": "address",
          "name": "from",
          "type": "address"
        },
        {
          "internalType": "address",
          "name": "to",
          "type": "address"
        },
        {
          "internalType": "uint256",
          "name": "tokenId",
          "type": "uint256"
        },
        {
          "internalType": "bytes",
          "name": "data",
          "type": "bytes"
        }
      ],
      "name": "safeTransferFrom",
      "outputs": [],
      "stateMutability": "nonpayable",
      "type": "function"
    },
    {
      "inputs": [
        {
          "internalType": "address",
          "name": "operator",
          "type": "address"
        },
        {
          "internalType": "bool",
          "name": "approved",
          "type": "bool"
        }
      ],
      "name": "setApprovalForAll",
      "outputs": [],
      "stateMutability": "nonpayable",
      "type": "function"
    },
    {
      "inputs": [],
      "name": "symbol",
      "outputs": [
        {
          "internalType": "string",
          "name": "",
          "type": "string"
        }
      ],
      "stateMutability": "view",
      "type": "function"
    },
    {
      "inputs": [
        {
          "internalType": "uint256",
          "name": "index",
          "type": "uint256"
        }
      ],
      "name": "tokenByIndex",
      "outputs": [
        {
          "internalType": "uint256",
          "name": "",
          "type": "uint256"
        }
      ],
      "stateMutability": "view",
      "type": "function"
    },
    {
      "inputs": [
        {
          "internalType": "address",
          "name": "owner",
          "type": "address"
        },
        {
          "internalType": "uint256",
          "name": "index",
          "type": "uint256"
        }
      ],
      "name": "tokenOfOwnerByIndex",
      "outputs": [
        {
          "internalType": "uint256",
          "name": "",
          "type": "uint256"
        }
      ],
      "stateMutability": "view",
      "type": "function"
    },
    {
      "inputs": [],
      "name": "totalSupply",
      "outputs": [
        {
          "internalType": "uint256",
          "name": "",
          "type": "uint256"
        }
      ],
      "stateMutability": "view",
      "type": "function"
    },
    {
      "inputs": [
        {
          "internalType": "address",
          "name": "from",
          "type": "address"
        },
        {
          "internalType": "address",
          "name": "to",
          "type": "address"
        },
        {
          "internalType": "uint256",
          "name": "tokenId",
          "type": "uint256"
        }
      ],
      "name": "transferFrom",
      "outputs": [],
      "stateMutability": "nonpayable",
      "type": "function"
    },
    {
      "inputs": [
        {
          "internalType": "address",
          "name": "newOwner",
          "type": "address"
        }
      ],
      "name": "transferOwnership",
      "outputs": [],
      "stateMutability": "nonpayable",
      "type": "function"
    },
    {
      "inputs": [
        {
          "internalType": "uint256",
          "name": "_tokenId",
          "type": "uint256"
        }
      ],
      "name": "tokenURI",
      "outputs": [
        {
          "internalType": "string",
          "name": "",
          "type": "string"
        }
      ],
      "stateMutability": "view",
      "type": "function"
    },
    {
      "inputs": [
        {
          "internalType": "bytes4",
          "name": "interfaceId",
          "type": "bytes4"
        }
      ],
      "name": "supportsInterface",
      "outputs": [
        {
          "internalType": "bool",
          "name": "",
          "type": "bool"
        }
      ],
      "stateMutability": "view",
      "type": "function"
    },
    {
      "inputs": [
        {
          "internalType": "string",
          "name": "_tokenURI",
          "type": "string"
        }
      ],
      "name": "mintNFT",
      "outputs": [
        {
          "internalType": "uint256",
          "name": "",
          "type": "uint256"
        }
      ],
      "stateMutability": "nonpayable",
      "type": "function"
    },
    {
      "inputs": [
        {
          "internalType": "uint256",
          "name": "_tokenId",
          "type": "uint256"
        }
      ],
      "name": "burnNFT",
      "outputs": [],
      "stateMutability": "nonpayable",
      "type": "function"
    },
    {
      "inputs": [
        {
          "internalType": "uint256",
          "name": "_num",
          "type": "uint256"
        }
      ],
      "name": "set_num",
      "outputs": [],
      "stateMutability": "nonpayable",
      "type": "function"
    },
    {
      "inputs": [],
      "name": "tip",
      "outputs": [],
      "stateMutability": "payable",
      "type": "function"
    },
    {
      "inputs": [],
      "name": "getBalance",
      "outputs": [
        {
          "internalType": "uint256",
          "name": "",
          "type": "uint256"
        }
      ],
      "stateMutability": "view",
      "type": "function"
    },
    {
      "inputs": [
        {
          "internalType": "address",
          "name": "_addr",
          "type": "address"
        }
      ],
      "name": "withdrawBalance",
      "outputs": [],
      "stateMutability": "nonpayable",
      "type": "function"
    }
  ],
  "bytecode": "0x60806040523480156200001157600080fd5b506040518060400160405280600781526020017f6c6f6c5f6e6674000000000000000000000000000000000000000000000000008152506040518060400160405280600381526020017f4c4f4c000000000000000000000000000000000000000000000000000000000081525081600090816200008f919062000412565b508060019081620000a1919062000412565b505050620000c4620000b8620000ca60201b60201c565b620000d260201b60201c565b620004f9565b600033905090565b6000600b60009054906101000a900473ffffffffffffffffffffffffffffffffffffffff16905081600b60006101000a81548173ffffffffffffffffffffffffffffffffffffffff021916908373ffffffffffffffffffffffffffffffffffffffff1602179055508173ffffffffffffffffffffffffffffffffffffffff168173ffffffffffffffffffffffffffffffffffffffff167f8be0079c531659141344cd1fd0a4f28419497f9722a3daafe3b4186f6b6457e060405160405180910390a35050565b600081519050919050565b7f4e487b7100000000000000000000000000000000000000000000000000000000600052604160045260246000fd5b7f4e487b7100000000000000000000000000000000000000000000000000000000600052602260045260246000fd5b600060028204905060018216806200021a57607f821691505b60208210810362000230576200022f620001d2565b5b50919050565b60008190508160005260206000209050919050565b60006020601f8301049050919050565b600082821b905092915050565b6000600883026200029a7fffffffffffffffffffffffffffffffffffffffffffffffffffffffffffffffff826200025b565b620002a686836200025b565b95508019841693508086168417925050509392505050565b6000819050919050565b6000819050919050565b6000620002f3620002ed620002e784620002be565b620002c8565b620002be565b9050919050565b6000819050919050565b6200030f83620002d2565b620003276200031e82620002fa565b84845462000268565b825550505050565b600090565b6200033e6200032f565b6200034b81848462000304565b505050565b5b8181101562000373576200036760008262000334565b60018101905062000351565b5050565b601f821115620003c2576200038c8162000236565b62000397846200024b565b81016020851015620003a7578190505b620003bf620003b6856200024b565b83018262000350565b50505b505050565b600082821c905092915050565b6000620003e760001984600802620003c7565b1980831691505092915050565b6000620004028383620003d4565b9150826002028217905092915050565b6200041d8262000198565b67ffffffffffffffff811115620004395762000438620001a3565b5b62000445825462000201565b6200045282828562000377565b600060209050601f8311600181146200048a576000841562000475578287015190505b620004818582620003f4565b865550620004f1565b601f1984166200049a8662000236565b60005b82811015620004c4578489015182556001820191506020850194506020810190506200049d565b86831015620004e45784890151620004e0601f891682620003d4565b8355505b6001600288020188555050505b505050505050565b613f5c80620005096000396000f3fe60806040526004361061019c5760003560e01c80634f6ccce7116100ec578063a22cb4651161008a578063e985e9c511610064578063e985e9c5146105b7578063f2fde38b146105f4578063f7c7c5911461061d578063fb37e883146106485761019c565b8063a22cb46514610528578063b88d4fde14610551578063c87b56dd1461057a5761019c565b8063715018a6116100c6578063715018a614610492578063756af45f146104a95780638da5cb5b146104d257806395d89b41146104fd5761019c565b80634f6ccce7146103db5780636352211e1461041857806370a08231146104555761019c565b806318160ddd116101595780632890e0d7116101335780632890e0d7146103215780632f745c591461034a57806342842e0e146103875780634e70b1dc146103b05761019c565b806318160ddd146102c357806323b872dd146102ee5780632755cd2d146103175761019c565b806301ffc9a7146101a157806306fdde03146101de578063081812fc14610209578063095ea7b3146102465780630da665a41461026f57806312065fe014610298575b600080fd5b3480156101ad57600080fd5b506101c860048036038101906101c39190612997565b610685565b6040516101d591906129df565b60405180910390f35b3480156101ea57600080fd5b506101f3610697565b6040516102009190612a8a565b60405180910390f35b34801561021557600080fd5b50610230600480360381019061022b9190612ae2565b610729565b60405161023d9190612b50565b60405180910390f35b34801561025257600080fd5b5061026d60048036038101906102689190612b97565b61076f565b005b34801561027b57600080fd5b5061029660048036038101906102919190612ae2565b610886565b005b3480156102a457600080fd5b506102ad610898565b6040516102ba9190612be6565b60405180910390f35b3480156102cf57600080fd5b506102d86108a0565b6040516102e59190612be6565b60405180910390f35b3480156102fa57600080fd5b5061031560048036038101906103109190612c01565b6108ad565b005b61031f61090d565b005b34801561032d57600080fd5b5061034860048036038101906103439190612ae2565b61090f565b005b34801561035657600080fd5b50610371600480360381019061036c9190612b97565b610982565b60405161037e9190612be6565b60405180910390f35b34801561039357600080fd5b506103ae60048036038101906103a99190612c01565b610a27565b005b3480156103bc57600080fd5b506103c5610a47565b6040516103d29190612be6565b60405180910390f35b3480156103e757600080fd5b5061040260048036038101906103fd9190612ae2565b610a4d565b60405161040f9190612be6565b60405180910390f35b34801561042457600080fd5b5061043f600480360381019061043a9190612ae2565b610abe565b60405161044c9190612b50565b60405180910390f35b34801561046157600080fd5b5061047c60048036038101906104779190612c54565b610b44565b6040516104899190612be6565b60405180910390f35b34801561049e57600080fd5b506104a7610bfb565b005b3480156104b557600080fd5b506104d060048036038101906104cb9190612c54565b610c0f565b005b3480156104de57600080fd5b506104e7610ccf565b6040516104f49190612b50565b60405180910390f35b34801561050957600080fd5b50610512610cf9565b60405161051f9190612a8a565b60405180910390f35b34801561053457600080fd5b5061054f600480360381019061054a9190612cad565b610d8b565b005b34801561055d57600080fd5b5061057860048036038101906105739190612e22565b610da1565b005b34801561058657600080fd5b506105a1600480360381019061059c9190612ae2565b610e03565b6040516105ae9190612a8a565b60405180910390f35b3480156105c357600080fd5b506105de60048036038101906105d99190612ea5565b610e15565b6040516105eb91906129df565b60405180910390f35b34801561060057600080fd5b5061061b60048036038101906106169190612c54565b610ea9565b005b34801561062957600080fd5b50610632610f2c565b60405161063f9190612be6565b60405180910390f35b34801561065457600080fd5b5061066f600480360381019061066a9190612f86565b610f32565b60405161067c9190612be6565b60405180910390f35b600061069082610f8b565b9050919050565b6060600080546106a690612ffe565b80601f01602080910402602001604051908101604052809291908181526020018280546106d290612ffe565b801561071f5780601f106106f45761010080835404028352916020019161071f565b820191906000526020600020905b81548152906001019060200180831161070257829003601f168201915b5050505050905090565b600061073482611005565b6004600083815260200190815260200160002060009054906101000a900473ffffffffffffffffffffffffffffffffffffffff169050919050565b600061077a82610abe565b90508073ffffffffffffffffffffffffffffffffffffffff168373ffffffffffffffffffffffffffffffffffffffff16036107ea576040517f08c379a00000000000000000000000000000000000000000000000000000000081526004016107e1906130a1565b60405180910390fd5b8073ffffffffffffffffffffffffffffffffffffffff16610809611050565b73ffffffffffffffffffffffffffffffffffffffff161480610838575061083781610832611050565b610e15565b5b610877576040517f08c379a000000000000000000000000000000000000000000000000000000000815260040161086e90613133565b60405180910390fd5b6108818383611058565b505050565b61088e611111565b80600d8190555050565b600047905090565b6000600980549050905090565b6108be6108b8611050565b8261118f565b6108fd576040517f08c379a00000000000000000000000000000000000000000000000000000000081526004016108f4906131c5565b60405180910390fd5b610908838383611224565b505050565b565b610917611111565b6000600e541161095c576040517f08c379a000000000000000000000000000000000000000000000000000000000815260040161095390613231565b60405180910390fd5b6109658161151d565b6001600e60008282546109789190613280565b9250508190555050565b600061098d83610b44565b82106109ce576040517f08c379a00000000000000000000000000000000000000000000000000000000081526004016109c590613326565b60405180910390fd5b600760008473ffffffffffffffffffffffffffffffffffffffff1673ffffffffffffffffffffffffffffffffffffffff168152602001908152602001600020600083815260200190815260200160002054905092915050565b610a4283838360405180602001604052806000815250610da1565b505050565b600d5481565b6000610a576108a0565b8210610a98576040517f08c379a0000000000000000000000000000000000000000000000000000000008152600401610a8f906133b8565b60405180910390fd5b60098281548110610aac57610aab6133d8565b5b90600052602060002001549050919050565b600080610aca83611529565b9050600073ffffffffffffffffffffffffffffffffffffffff168173ffffffffffffffffffffffffffffffffffffffff1603610b3b576040517f08c379a0000000000000000000000000000000000000000000000000000000008152600401610b3290613453565b60405180910390fd5b80915050919050565b60008073ffffffffffffffffffffffffffffffffffffffff168273ffffffffffffffffffffffffffffffffffffffff1603610bb4576040517f08c379a0000000000000000000000000000000000000000000000000000000008152600401610bab906134e5565b60405180910390fd5b600360008373ffffffffffffffffffffffffffffffffffffffff1673ffffffffffffffffffffffffffffffffffffffff168152602001908152602001600020549050919050565b610c03611111565b610c0d6000611566565b565b610c17611111565b60008173ffffffffffffffffffffffffffffffffffffffff16670de0b6b3a7640000604051610c4590613536565b60006040518083038185875af1925050503d8060008114610c82576040519150601f19603f3d011682016040523d82523d6000602084013e610c87565b606091505b5050905080610ccb576040517f08c379a0000000000000000000000000000000000000000000000000000000008152600401610cc290613597565b60405180910390fd5b5050565b6000600b60009054906101000a900473ffffffffffffffffffffffffffffffffffffffff16905090565b606060018054610d0890612ffe565b80601f0160208091040260200160405190810160405280929190818152602001828054610d3490612ffe565b8015610d815780601f10610d5657610100808354040283529160200191610d81565b820191906000526020600020905b815481529060010190602001808311610d6457829003601f168201915b5050505050905090565b610d9d610d96611050565b838361162c565b5050565b610db2610dac611050565b8361118f565b610df1576040517f08c379a0000000000000000000000000000000000000000000000000000000008152600401610de8906131c5565b60405180910390fd5b610dfd84848484611798565b50505050565b6060610e0e826117f4565b9050919050565b6000600560008473ffffffffffffffffffffffffffffffffffffffff1673ffffffffffffffffffffffffffffffffffffffff16815260200190815260200160002060008373ffffffffffffffffffffffffffffffffffffffff1673ffffffffffffffffffffffffffffffffffffffff16815260200190815260200160002060009054906101000a900460ff16905092915050565b610eb1611111565b600073ffffffffffffffffffffffffffffffffffffffff168173ffffffffffffffffffffffffffffffffffffffff1603610f20576040517f08c379a0000000000000000000000000000000000000000000000000000000008152600401610f1790613629565b60405180910390fd5b610f2981611566565b50565b600e5481565b6000610f3c611111565b610f46600c611906565b6000610f52600c61191c565b9050610f5e338261192a565b610f688184611b47565b6001600e6000828254610f7b9190613649565b9250508190555080915050919050565b60007f780e9d63000000000000000000000000000000000000000000000000000000007bffffffffffffffffffffffffffffffffffffffffffffffffffffffff1916827bffffffffffffffffffffffffffffffffffffffffffffffffffffffff19161480610ffe5750610ffd82611bb4565b5b9050919050565b61100e81611c96565b61104d576040517f08c379a000000000000000000000000000000000000000000000000000000000815260040161104490613453565b60405180910390fd5b50565b600033905090565b816004600083815260200190815260200160002060006101000a81548173ffffffffffffffffffffffffffffffffffffffff021916908373ffffffffffffffffffffffffffffffffffffffff160217905550808273ffffffffffffffffffffffffffffffffffffffff166110cb83610abe565b73ffffffffffffffffffffffffffffffffffffffff167f8c5be1e5ebec7d5bd14f71427d1e84f3dd0314c0f7b2291e5b200ac8c7c3b92560405160405180910390a45050565b611119611050565b73ffffffffffffffffffffffffffffffffffffffff16611137610ccf565b73ffffffffffffffffffffffffffffffffffffffff161461118d576040517f08c379a0000000000000000000000000000000000000000000000000000000008152600401611184906136c9565b60405180910390fd5b565b60008061119b83610abe565b90508073ffffffffffffffffffffffffffffffffffffffff168473ffffffffffffffffffffffffffffffffffffffff1614806111dd57506111dc8185610e15565b5b8061121b57508373ffffffffffffffffffffffffffffffffffffffff1661120384610729565b73ffffffffffffffffffffffffffffffffffffffff16145b91505092915050565b8273ffffffffffffffffffffffffffffffffffffffff1661124482610abe565b73ffffffffffffffffffffffffffffffffffffffff161461129a576040517f08c379a00000000000000000000000000000000000000000000000000000000081526004016112919061375b565b60405180910390fd5b600073ffffffffffffffffffffffffffffffffffffffff168273ffffffffffffffffffffffffffffffffffffffff1603611309576040517f08c379a0000000000000000000000000000000000000000000000000000000008152600401611300906137ed565b60405180910390fd5b6113168383836001611cd7565b8273ffffffffffffffffffffffffffffffffffffffff1661133682610abe565b73ffffffffffffffffffffffffffffffffffffffff161461138c576040517f08c379a00000000000000000000000000000000000000000000000000000000081526004016113839061375b565b60405180910390fd5b6004600082815260200190815260200160002060006101000a81549073ffffffffffffffffffffffffffffffffffffffff02191690556001600360008573ffffffffffffffffffffffffffffffffffffffff1673ffffffffffffffffffffffffffffffffffffffff168152602001908152602001600020600082825403925050819055506001600360008473ffffffffffffffffffffffffffffffffffffffff1673ffffffffffffffffffffffffffffffffffffffff16815260200190815260200160002060008282540192505081905550816002600083815260200190815260200160002060006101000a81548173ffffffffffffffffffffffffffffffffffffffff021916908373ffffffffffffffffffffffffffffffffffffffff160217905550808273ffffffffffffffffffffffffffffffffffffffff168473ffffffffffffffffffffffffffffffffffffffff167fddf252ad1be2c89b69c2b068fc378daa952ba7f163c4a11628f55a4df523b3ef60405160405180910390a46115188383836001611ce9565b505050565b61152681611cef565b50565b60006002600083815260200190815260200160002060009054906101000a900473ffffffffffffffffffffffffffffffffffffffff169050919050565b6000600b60009054906101000a900473ffffffffffffffffffffffffffffffffffffffff16905081600b60006101000a81548173ffffffffffffffffffffffffffffffffffffffff021916908373ffffffffffffffffffffffffffffffffffffffff1602179055508173ffffffffffffffffffffffffffffffffffffffff168173ffffffffffffffffffffffffffffffffffffffff167f8be0079c531659141344cd1fd0a4f28419497f9722a3daafe3b4186f6b6457e060405160405180910390a35050565b8173ffffffffffffffffffffffffffffffffffffffff168373ffffffffffffffffffffffffffffffffffffffff160361169a576040517f08c379a000000000000000000000000000000000000000000000000000000000815260040161169190613859565b60405180910390fd5b80600560008573ffffffffffffffffffffffffffffffffffffffff1673ffffffffffffffffffffffffffffffffffffffff16815260200190815260200160002060008473ffffffffffffffffffffffffffffffffffffffff1673ffffffffffffffffffffffffffffffffffffffff16815260200190815260200160002060006101000a81548160ff0219169083151502179055508173ffffffffffffffffffffffffffffffffffffffff168373ffffffffffffffffffffffffffffffffffffffff167f17307eab39ab6107e8899845ad3d59bd9653f200f220920489ca2b5937696c318360405161178b91906129df565b60405180910390a3505050565b6117a3848484611224565b6117af84848484611d42565b6117ee576040517f08c379a00000000000000000000000000000000000000000000000000000000081526004016117e5906138eb565b60405180910390fd5b50505050565b60606117ff82611005565b600060066000848152602001908152602001600020805461181f90612ffe565b80601f016020809104026020016040519081016040528092919081815260200182805461184b90612ffe565b80156118985780601f1061186d57610100808354040283529160200191611898565b820191906000526020600020905b81548152906001019060200180831161187b57829003601f168201915b5050505050905060006118a9611ec9565b905060008151036118be578192505050611901565b6000825111156118f35780826040516020016118db929190613947565b60405160208183030381529060405292505050611901565b6118fc84611ee0565b925050505b919050565b6001816000016000828254019250508190555050565b600081600001549050919050565b600073ffffffffffffffffffffffffffffffffffffffff168273ffffffffffffffffffffffffffffffffffffffff1603611999576040517f08c379a0000000000000000000000000000000000000000000000000000000008152600401611990906139b7565b60405180910390fd5b6119a281611c96565b156119e2576040517f08c379a00000000000000000000000000000000000000000000000000000000081526004016119d990613a23565b60405180910390fd5b6119f0600083836001611cd7565b6119f981611c96565b15611a39576040517f08c379a0000000000000000000000000000000000000000000000000000000008152600401611a3090613a23565b60405180910390fd5b6001600360008473ffffffffffffffffffffffffffffffffffffffff1673ffffffffffffffffffffffffffffffffffffffff16815260200190815260200160002060008282540192505081905550816002600083815260200190815260200160002060006101000a81548173ffffffffffffffffffffffffffffffffffffffff021916908373ffffffffffffffffffffffffffffffffffffffff160217905550808273ffffffffffffffffffffffffffffffffffffffff16600073ffffffffffffffffffffffffffffffffffffffff167fddf252ad1be2c89b69c2b068fc378daa952ba7f163c4a11628f55a4df523b3ef60405160405180910390a4611b43600083836001611ce9565b5050565b611b5082611c96565b611b8f576040517f08c379a0000000000000000000000000000000000000000000000000000000008152600401611b8690613ab5565b60405180910390fd5b80600660008481526020019081526020016000209081611baf9190613c81565b505050565b60007f80ac58cd000000000000000000000000000000000000000000000000000000007bffffffffffffffffffffffffffffffffffffffffffffffffffffffff1916827bffffffffffffffffffffffffffffffffffffffffffffffffffffffff19161480611c7f57507f5b5e139f000000000000000000000000000000000000000000000000000000007bffffffffffffffffffffffffffffffffffffffffffffffffffffffff1916827bffffffffffffffffffffffffffffffffffffffffffffffffffffffff1916145b80611c8f5750611c8e82611f48565b5b9050919050565b60008073ffffffffffffffffffffffffffffffffffffffff16611cb883611529565b73ffffffffffffffffffffffffffffffffffffffff1614159050919050565b611ce384848484611fb2565b50505050565b50505050565b611cf881612110565b6000600660008381526020019081526020016000208054611d1890612ffe565b905014611d3f57600660008281526020019081526020016000206000611d3e91906128ce565b5b50565b6000611d638473ffffffffffffffffffffffffffffffffffffffff1661225e565b15611ebc578373ffffffffffffffffffffffffffffffffffffffff1663150b7a02611d8c611050565b8786866040518563ffffffff1660e01b8152600401611dae9493929190613da8565b6020604051808303816000875af1925050508015611dea57506040513d601f19601f82011682018060405250810190611de79190613e09565b60015b611e6c573d8060008114611e1a576040519150601f19603f3d011682016040523d82523d6000602084013e611e1f565b606091505b506000815103611e64576040517f08c379a0000000000000000000000000000000000000000000000000000000008152600401611e5b906138eb565b60405180910390fd5b805181602001fd5b63150b7a0260e01b7bffffffffffffffffffffffffffffffffffffffffffffffffffffffff1916817bffffffffffffffffffffffffffffffffffffffffffffffffffffffff191614915050611ec1565b600190505b949350505050565b606060405180602001604052806000815250905090565b6060611eeb82611005565b6000611ef5611ec9565b90506000815111611f155760405180602001604052806000815250611f40565b80611f1f84612281565b604051602001611f30929190613947565b6040516020818303038152906040525b915050919050565b60007f01ffc9a7000000000000000000000000000000000000000000000000000000007bffffffffffffffffffffffffffffffffffffffffffffffffffffffff1916827bffffffffffffffffffffffffffffffffffffffffffffffffffffffff1916149050919050565b611fbe8484848461234f565b6001811115612002576040517f08c379a0000000000000000000000000000000000000000000000000000000008152600401611ff990613ea8565b60405180910390fd5b6000829050600073ffffffffffffffffffffffffffffffffffffffff168573ffffffffffffffffffffffffffffffffffffffff16036120495761204481612475565b612088565b8373ffffffffffffffffffffffffffffffffffffffff168573ffffffffffffffffffffffffffffffffffffffff16146120875761208685826124be565b5b5b600073ffffffffffffffffffffffffffffffffffffffff168473ffffffffffffffffffffffffffffffffffffffff16036120ca576120c58161262b565b612109565b8473ffffffffffffffffffffffffffffffffffffffff168473ffffffffffffffffffffffffffffffffffffffff16146121085761210784826126fc565b5b5b5050505050565b600061211b82610abe565b905061212b816000846001611cd7565b61213482610abe565b90506004600083815260200190815260200160002060006101000a81549073ffffffffffffffffffffffffffffffffffffffff02191690556001600360008373ffffffffffffffffffffffffffffffffffffffff1673ffffffffffffffffffffffffffffffffffffffff168152602001908152602001600020600082825403925050819055506002600083815260200190815260200160002060006101000a81549073ffffffffffffffffffffffffffffffffffffffff021916905581600073ffffffffffffffffffffffffffffffffffffffff168273ffffffffffffffffffffffffffffffffffffffff167fddf252ad1be2c89b69c2b068fc378daa952ba7f163c4a11628f55a4df523b3ef60405160405180910390a461225a816000846001611ce9565b5050565b6000808273ffffffffffffffffffffffffffffffffffffffff163b119050919050565b6060600060016122908461277b565b01905060008167ffffffffffffffff8111156122af576122ae612cf7565b5b6040519080825280601f01601f1916602001820160405280156122e15781602001600182028036833780820191505090505b509050600082602001820190505b600115612344578080600190039150507f3031323334353637383961626364656600000000000000000000000000000000600a86061a8153600a858161233857612337613ec8565b5b049450600085036122ef575b819350505050919050565b600181111561246f57600073ffffffffffffffffffffffffffffffffffffffff168473ffffffffffffffffffffffffffffffffffffffff16146123e35780600360008673ffffffffffffffffffffffffffffffffffffffff1673ffffffffffffffffffffffffffffffffffffffff16815260200190815260200160002060008282546123db9190613280565b925050819055505b600073ffffffffffffffffffffffffffffffffffffffff168373ffffffffffffffffffffffffffffffffffffffff161461246e5780600360008573ffffffffffffffffffffffffffffffffffffffff1673ffffffffffffffffffffffffffffffffffffffff16815260200190815260200160002060008282546124669190613649565b925050819055505b5b50505050565b600980549050600a600083815260200190815260200160002081905550600981908060018154018082558091505060019003906000526020600020016000909190919091505550565b600060016124cb84610b44565b6124d59190613280565b90506000600860008481526020019081526020016000205490508181146125ba576000600760008673ffffffffffffffffffffffffffffffffffffffff1673ffffffffffffffffffffffffffffffffffffffff168152602001908152602001600020600084815260200190815260200160002054905080600760008773ffffffffffffffffffffffffffffffffffffffff1673ffffffffffffffffffffffffffffffffffffffff168152602001908152602001600020600084815260200190815260200160002081905550816008600083815260200190815260200160002081905550505b6008600084815260200190815260200160002060009055600760008573ffffffffffffffffffffffffffffffffffffffff1673ffffffffffffffffffffffffffffffffffffffff16815260200190815260200160002060008381526020019081526020016000206000905550505050565b6000600160098054905061263f9190613280565b90506000600a600084815260200190815260200160002054905060006009838154811061266f5761266e6133d8565b5b906000526020600020015490508060098381548110612691576126906133d8565b5b906000526020600020018190555081600a600083815260200190815260200160002081905550600a60008581526020019081526020016000206000905560098054806126e0576126df613ef7565b5b6001900381819060005260206000200160009055905550505050565b600061270783610b44565b905081600760008573ffffffffffffffffffffffffffffffffffffffff1673ffffffffffffffffffffffffffffffffffffffff168152602001908152602001600020600083815260200190815260200160002081905550806008600084815260200190815260200160002081905550505050565b600080600090507a184f03e93ff9f4daa797ed6e38ed64bf6a1f01000000000000000083106127d9577a184f03e93ff9f4daa797ed6e38ed64bf6a1f01000000000000000083816127cf576127ce613ec8565b5b0492506040810190505b6d04ee2d6d415b85acef81000000008310612816576d04ee2d6d415b85acef8100000000838161280c5761280b613ec8565b5b0492506020810190505b662386f26fc10000831061284557662386f26fc10000838161283b5761283a613ec8565b5b0492506010810190505b6305f5e100831061286e576305f5e100838161286457612863613ec8565b5b0492506008810190505b612710831061289357612710838161288957612888613ec8565b5b0492506004810190505b606483106128b657606483816128ac576128ab613ec8565b5b0492506002810190505b600a83106128c5576001810190505b80915050919050565b5080546128da90612ffe565b6000825580601f106128ec575061290b565b601f01602090049060005260206000209081019061290a919061290e565b5b50565b5b8082111561292757600081600090555060010161290f565b5090565b6000604051905090565b600080fd5b600080fd5b60007fffffffff0000000000000000000000000000000000000000000000000000000082169050919050565b6129748161293f565b811461297f57600080fd5b50565b6000813590506129918161296b565b92915050565b6000602082840312156129ad576129ac612935565b5b60006129bb84828501612982565b91505092915050565b60008115159050919050565b6129d9816129c4565b82525050565b60006020820190506129f460008301846129d0565b92915050565b600081519050919050565b600082825260208201905092915050565b60005b83811015612a34578082015181840152602081019050612a19565b60008484015250505050565b6000601f19601f8301169050919050565b6000612a5c826129fa565b612a668185612a05565b9350612a76818560208601612a16565b612a7f81612a40565b840191505092915050565b60006020820190508181036000830152612aa48184612a51565b905092915050565b6000819050919050565b612abf81612aac565b8114612aca57600080fd5b50565b600081359050612adc81612ab6565b92915050565b600060208284031215612af857612af7612935565b5b6000612b0684828501612acd565b91505092915050565b600073ffffffffffffffffffffffffffffffffffffffff82169050919050565b6000612b3a82612b0f565b9050919050565b612b4a81612b2f565b82525050565b6000602082019050612b656000830184612b41565b92915050565b612b7481612b2f565b8114612b7f57600080fd5b50565b600081359050612b9181612b6b565b92915050565b60008060408385031215612bae57612bad612935565b5b6000612bbc85828601612b82565b9250506020612bcd85828601612acd565b9150509250929050565b612be081612aac565b82525050565b6000602082019050612bfb6000830184612bd7565b92915050565b600080600060608486031215612c1a57612c19612935565b5b6000612c2886828701612b82565b9350506020612c3986828701612b82565b9250506040612c4a86828701612acd565b9150509250925092565b600060208284031215612c6a57612c69612935565b5b6000612c7884828501612b82565b91505092915050565b612c8a816129c4565b8114612c9557600080fd5b50565b600081359050612ca781612c81565b92915050565b60008060408385031215612cc457612cc3612935565b5b6000612cd285828601612b82565b9250506020612ce385828601612c98565b9150509250929050565b600080fd5b600080fd5b7f4e487b7100000000000000000000000000000000000000000000000000000000600052604160045260246000fd5b612d2f82612a40565b810181811067ffffffffffffffff82111715612d4e57612d4d612cf7565b5b80604052505050565b6000612d6161292b565b9050612d6d8282612d26565b919050565b600067ffffffffffffffff821115612d8d57612d8c612cf7565b5b612d9682612a40565b9050602081019050919050565b82818337600083830152505050565b6000612dc5612dc084612d72565b612d57565b905082815260208101848484011115612de157612de0612cf2565b5b612dec848285612da3565b509392505050565b600082601f830112612e0957612e08612ced565b5b8135612e19848260208601612db2565b91505092915050565b60008060008060808587031215612e3c57612e3b612935565b5b6000612e4a87828801612b82565b9450506020612e5b87828801612b82565b9350506040612e6c87828801612acd565b925050606085013567ffffffffffffffff811115612e8d57612e8c61293a565b5b612e9987828801612df4565b91505092959194509250565b60008060408385031215612ebc57612ebb612935565b5b6000612eca85828601612b82565b9250506020612edb85828601612b82565b9150509250929050565b600067ffffffffffffffff821115612f0057612eff612cf7565b5b612f0982612a40565b9050602081019050919050565b6000612f29612f2484612ee5565b612d57565b905082815260208101848484011115612f4557612f44612cf2565b5b612f50848285612da3565b509392505050565b600082601f830112612f6d57612f6c612ced565b5b8135612f7d848260208601612f16565b91505092915050565b600060208284031215612f9c57612f9b612935565b5b600082013567ffffffffffffffff811115612fba57612fb961293a565b5b612fc684828501612f58565b91505092915050565b7f4e487b7100000000000000000000000000000000000000000000000000000000600052602260045260246000fd5b6000600282049050600182168061301657607f821691505b60208210810361302957613028612fcf565b5b50919050565b7f4552433732313a20617070726f76616c20746f2063757272656e74206f776e6560008201527f7200000000000000000000000000000000000000000000000000000000000000602082015250565b600061308b602183612a05565b91506130968261302f565b604082019050919050565b600060208201905081810360008301526130ba8161307e565b9050919050565b7f4552433732313a20617070726f76652063616c6c6572206973206e6f7420746f60008201527f6b656e206f776e6572206f7220617070726f76656420666f7220616c6c000000602082015250565b600061311d603d83612a05565b9150613128826130c1565b604082019050919050565b6000602082019050818103600083015261314c81613110565b9050919050565b7f4552433732313a2063616c6c6572206973206e6f7420746f6b656e206f776e6560008201527f72206f7220617070726f76656400000000000000000000000000000000000000602082015250565b60006131af602d83612a05565b91506131ba82613153565b604082019050919050565b600060208201905081810360008301526131de816131a2565b9050919050565b7f4e6f204e46542079657400000000000000000000000000000000000000000000600082015250565b600061321b600a83612a05565b9150613226826131e5565b602082019050919050565b6000602082019050818103600083015261324a8161320e565b9050919050565b7f4e487b7100000000000000000000000000000000000000000000000000000000600052601160045260246000fd5b600061328b82612aac565b915061329683612aac565b92508282039050818111156132ae576132ad613251565b5b92915050565b7f455243373231456e756d657261626c653a206f776e657220696e646578206f7560008201527f74206f6620626f756e6473000000000000000000000000000000000000000000602082015250565b6000613310602b83612a05565b915061331b826132b4565b604082019050919050565b6000602082019050818103600083015261333f81613303565b9050919050565b7f455243373231456e756d657261626c653a20676c6f62616c20696e646578206f60008201527f7574206f6620626f756e64730000000000000000000000000000000000000000602082015250565b60006133a2602c83612a05565b91506133ad82613346565b604082019050919050565b600060208201905081810360008301526133d181613395565b9050919050565b7f4e487b7100000000000000000000000000000000000000000000000000000000600052603260045260246000fd5b7f4552433732313a20696e76616c696420746f6b656e2049440000000000000000600082015250565b600061343d601883612a05565b915061344882613407565b602082019050919050565b6000602082019050818103600083015261346c81613430565b9050919050565b7f4552433732313a2061646472657373207a65726f206973206e6f74206120766160008201527f6c6964206f776e65720000000000000000000000000000000000000000000000602082015250565b60006134cf602983612a05565b91506134da82613473565b604082019050919050565b600060208201905081810360008301526134fe816134c2565b9050919050565b600081905092915050565b50565b6000613520600083613505565b915061352b82613510565b600082019050919050565b600061354182613513565b9150819050919050565b7f63616c6c206661696c6564000000000000000000000000000000000000000000600082015250565b6000613581600b83612a05565b915061358c8261354b565b602082019050919050565b600060208201905081810360008301526135b081613574565b9050919050565b7f4f776e61626c653a206e6577206f776e657220697320746865207a65726f206160008201527f6464726573730000000000000000000000000000000000000000000000000000602082015250565b6000613613602683612a05565b915061361e826135b7565b604082019050919050565b6000602082019050818103600083015261364281613606565b9050919050565b600061365482612aac565b915061365f83612aac565b925082820190508082111561367757613676613251565b5b92915050565b7f4f776e61626c653a2063616c6c6572206973206e6f7420746865206f776e6572600082015250565b60006136b3602083612a05565b91506136be8261367d565b602082019050919050565b600060208201905081810360008301526136e2816136a6565b9050919050565b7f4552433732313a207472616e736665722066726f6d20696e636f72726563742060008201527f6f776e6572000000000000000000000000000000000000000000000000000000602082015250565b6000613745602583612a05565b9150613750826136e9565b604082019050919050565b6000602082019050818103600083015261377481613738565b9050919050565b7f4552433732313a207472616e7366657220746f20746865207a65726f2061646460008201527f7265737300000000000000000000000000000000000000000000000000000000602082015250565b60006137d7602483612a05565b91506137e28261377b565b604082019050919050565b60006020820190508181036000830152613806816137ca565b9050919050565b7f4552433732313a20617070726f766520746f2063616c6c657200000000000000600082015250565b6000613843601983612a05565b915061384e8261380d565b602082019050919050565b6000602082019050818103600083015261387281613836565b9050919050565b7f4552433732313a207472616e7366657220746f206e6f6e20455243373231526560008201527f63656976657220696d706c656d656e7465720000000000000000000000000000602082015250565b60006138d5603283612a05565b91506138e082613879565b604082019050919050565b60006020820190508181036000830152613904816138c8565b9050919050565b600081905092915050565b6000613921826129fa565b61392b818561390b565b935061393b818560208601612a16565b80840191505092915050565b60006139538285613916565b915061395f8284613916565b91508190509392505050565b7f4552433732313a206d696e7420746f20746865207a65726f2061646472657373600082015250565b60006139a1602083612a05565b91506139ac8261396b565b602082019050919050565b600060208201905081810360008301526139d081613994565b9050919050565b7f4552433732313a20746f6b656e20616c7265616479206d696e74656400000000600082015250565b6000613a0d601c83612a05565b9150613a18826139d7565b602082019050919050565b60006020820190508181036000830152613a3c81613a00565b9050919050565b7f45524337323155524953746f726167653a2055524920736574206f66206e6f6e60008201527f6578697374656e7420746f6b656e000000000000000000000000000000000000602082015250565b6000613a9f602e83612a05565b9150613aaa82613a43565b604082019050919050565b60006020820190508181036000830152613ace81613a92565b9050919050565b60008190508160005260206000209050919050565b60006020601f8301049050919050565b600082821b905092915050565b600060088302613b377fffffffffffffffffffffffffffffffffffffffffffffffffffffffffffffffff82613afa565b613b418683613afa565b95508019841693508086168417925050509392505050565b6000819050919050565b6000613b7e613b79613b7484612aac565b613b59565b612aac565b9050919050565b6000819050919050565b613b9883613b63565b613bac613ba482613b85565b848454613b07565b825550505050565b600090565b613bc1613bb4565b613bcc818484613b8f565b505050565b5b81811015613bf057613be5600082613bb9565b600181019050613bd2565b5050565b601f821115613c3557613c0681613ad5565b613c0f84613aea565b81016020851015613c1e578190505b613c32613c2a85613aea565b830182613bd1565b50505b505050565b600082821c905092915050565b6000613c5860001984600802613c3a565b1980831691505092915050565b6000613c718383613c47565b9150826002028217905092915050565b613c8a826129fa565b67ffffffffffffffff811115613ca357613ca2612cf7565b5b613cad8254612ffe565b613cb8828285613bf4565b600060209050601f831160018114613ceb5760008415613cd9578287015190505b613ce38582613c65565b865550613d4b565b601f198416613cf986613ad5565b60005b82811015613d2157848901518255600182019150602085019450602081019050613cfc565b86831015613d3e5784890151613d3a601f891682613c47565b8355505b6001600288020188555050505b505050505050565b600081519050919050565b600082825260208201905092915050565b6000613d7a82613d53565b613d848185613d5e565b9350613d94818560208601612a16565b613d9d81612a40565b840191505092915050565b6000608082019050613dbd6000830187612b41565b613dca6020830186612b41565b613dd76040830185612bd7565b8181036060830152613de98184613d6f565b905095945050505050565b600081519050613e038161296b565b92915050565b600060208284031215613e1f57613e1e612935565b5b6000613e2d84828501613df4565b91505092915050565b7f455243373231456e756d657261626c653a20636f6e736563757469766520747260008201527f616e7366657273206e6f7420737570706f727465640000000000000000000000602082015250565b6000613e92603583612a05565b9150613e9d82613e36565b604082019050919050565b60006020820190508181036000830152613ec181613e85565b9050919050565b7f4e487b7100000000000000000000000000000000000000000000000000000000600052601260045260246000fd5b7f4e487b7100000000000000000000000000000000000000000000000000000000600052603160045260246000fdfea26469706673582212200282e3a91ecf556b6aa25a2ba8697ef50530e1d38ae65979026f5b148c7963b964736f6c63430008110033",
  "immutableReferences": {},
  "source": "//SPDX-License-Identifier: MIT \r\n\r\npragma solidity ^0.8.7;\r\n//\"@openzeppelin/contracts/\";\r\nimport \"@openzeppelin/contracts/token/ERC721/ERC721.sol\";\r\nimport \"@openzeppelin/contracts/utils/Counters.sol\";\r\nimport \"@openzeppelin/contracts/access/Ownable.sol\";\r\nimport \"@openzeppelin/contracts/token/ERC721/extensions/ERC721URIStorage.sol\";\r\nimport \"@openzeppelin/contracts/token/ERC721/extensions/ERC721Enumerable.sol\";\r\nimport \"@openzeppelin/contracts/token/ERC721/extensions/IERC721Enumerable.sol\";\r\n\r\ncontract mintContract_2 is ERC721URIStorage,ERC721Enumerable,Ownable{\r\n    using Counters for Counters.Counter;\r\n    Counters.Counter private tokenId;\r\n\r\n    uint public num;\r\n    uint public nft_num;\r\n\r\n    constructor() ERC721(\"lol_nft\",\"LOL\"){\r\n    }\r\n\r\n    function _beforeTokenTransfer(address from, address to, uint256 _tokenId, uint256 batchSize) internal override(ERC721,ERC721Enumerable){\r\n        super._beforeTokenTransfer(from, to, _tokenId, batchSize);\r\n    }\r\n\r\n    function _burn(uint256 _tokenId) internal override(ERC721, ERC721URIStorage) {\r\n        super._burn(_tokenId);\r\n    }\r\n\r\n    function tokenURI(uint256 _tokenId) public view override(ERC721, ERC721URIStorage) returns (string memory){\r\n        return super.tokenURI(_tokenId);\r\n    }\r\n\r\n    function supportsInterface(bytes4 interfaceId) public view override(ERC721, ERC721Enumerable) returns (bool){\r\n        return super.supportsInterface(interfaceId);\r\n    }\r\n\r\n    function mintNFT(string memory _tokenURI) public onlyOwner returns(uint256){\r\n        tokenId.increment();\r\n        uint256 newId = tokenId.current();\r\n        _mint(msg.sender, newId);\r\n        _setTokenURI(newId, _tokenURI);\r\n        nft_num +=1;\r\n        return newId;\r\n    }\r\n\r\n    function burnNFT(uint256 _tokenId) public onlyOwner{\r\n        require(nft_num > 0,\"No NFT yet\");\r\n        _burn(_tokenId);\r\n        nft_num-=1;\r\n    }\r\n\r\n    function set_num(uint256 _num) public onlyOwner{\r\n        num = _num;\r\n    }\r\n\r\n    function tip() public payable{\r\n    }\r\n\r\n    function getBalance() public view returns(uint){\r\n        return address(this).balance;\r\n    }\r\n\r\n    function withdrawBalance(address _addr) public onlyOwner{\r\n        (bool result,) = payable(_addr).call{value:1 ether}(\"\");\r\n        require(result,'call failed');\r\n    }\r\n\r\n}",
  "sourcePath": "C:\\Brian\\js\\mutable-nft-project\\minting-nft\\contracts\\mintContract_2.sol",
  "compiler": {
    "name": "solc",
    "version": "0.8.17+commit.8df45f5f.Emscripten.clang"
  },
  "schemaVersion": "3.4.11",
  "updatedAt": "2023-02-17T01:34:59.911Z",
  "devdoc": {
    "kind": "dev",
    "methods": {
      "approve(address,uint256)": {
        "details": "See {IERC721-approve}."
      },
      "balanceOf(address)": {
        "details": "See {IERC721-balanceOf}."
      },
      "getApproved(uint256)": {
        "details": "See {IERC721-getApproved}."
      },
      "isApprovedForAll(address,address)": {
        "details": "See {IERC721-isApprovedForAll}."
      },
      "name()": {
        "details": "See {IERC721Metadata-name}."
      },
      "owner()": {
        "details": "Returns the address of the current owner."
      },
      "ownerOf(uint256)": {
        "details": "See {IERC721-ownerOf}."
      },
      "renounceOwnership()": {
        "details": "Leaves the contract without owner. It will not be possible to call `onlyOwner` functions anymore. Can only be called by the current owner. NOTE: Renouncing ownership will leave the contract without an owner, thereby removing any functionality that is only available to the owner."
      },
      "safeTransferFrom(address,address,uint256)": {
        "details": "See {IERC721-safeTransferFrom}."
      },
      "safeTransferFrom(address,address,uint256,bytes)": {
        "details": "See {IERC721-safeTransferFrom}."
      },
      "setApprovalForAll(address,bool)": {
        "details": "See {IERC721-setApprovalForAll}."
      },
      "symbol()": {
        "details": "See {IERC721Metadata-symbol}."
      },
      "tokenByIndex(uint256)": {
        "details": "See {IERC721Enumerable-tokenByIndex}."
      },
      "tokenOfOwnerByIndex(address,uint256)": {
        "details": "See {IERC721Enumerable-tokenOfOwnerByIndex}."
      },
      "totalSupply()": {
        "details": "See {IERC721Enumerable-totalSupply}."
      },
      "transferFrom(address,address,uint256)": {
        "details": "See {IERC721-transferFrom}."
      },
      "transferOwnership(address)": {
        "details": "Transfers ownership of the contract to a new account (`newOwner`). Can only be called by the current owner."
      }
    },
    "version": 1
  },
  "userdoc": {
    "kind": "user",
    "methods": {},
    "version": 1
  }
}